:03000000020B6A86
:0C0B6A00787FE4F6D8FD758120020BB105
:100D9F004E6F7720467265713A002E004B487A00ED
:090DAF00536574467265713A0047
:060E1000040D000005DCEA
:0C0DF000C2AF53E71843E70143E780223D
:090E070053E77FE4F5E6D2AF22C7
:0B0DFC00120DF075E64675E6B9002206
:100D8300AD07AC06C2AF8CE3EDF5E453E5F843E5FC
:0C0D930001120DFC120E07D2AFAFE222DD
:100DCE00EE54FEFEF5E3E4F5E453E5F843E50312D5
:050DDE000DFC020E07F0
:100CAD007F007E20120DCEE4FB7A01F9F8AF10AE75
:100CBD000FAD0EAC0D1208A4AD077F007E20120CF7
:080CCD00D5E510FFAD077F0122
:100CD500AB07AA06C2AF8AE3EBF5E453E5F843E5B3
:0C0CE500028DE2120DFC120E07D2AF22AD
:0B0DB8007C00E4FF120D117FDC7E05C3
:0B0DC300EF1FAC0670011E4C70F62202
:100CF100E4F9F8AF0BAE0AAD09AC081208A4E47B25
:100D01000AFAF9F81208A4EB2430FDE43AFC7F0159
:100D1100AB05C2A7EF24FF92A58B80C2A6D2A77F05
:090D21000A7E00120DC3C2A722D4
:060D2A007BFF7A0D79A9A0
:100D30008B148A158916AB14AA15A916120800601F
:100D400015FD7C007F01120D1174012516F516E4C6
:070D50003515F51580E022C6
:100D57007D01120DB87D38120DB87D0C7C00E4FFC3
:100D6700120D117D067C00E4FF120D117DD07C0071
:0C0D7700E4FF120D117FDC7E05020DC3AD
:100AC9007D807C00E4FF120D117BFF7A0D799F1266
:100AD9000D307BA07A8679017800120CF47B107AAC
:100AE90027120CF17BE87A03120CF1120D2AE47B30
:100AF90064FA120CF27BFF7A0D79AB120D307DC0CE
:100B09007C00E4FF120D117BFF7A0D79AF120D30D5
:100B1900E47BE87A03F9F8AF10AE0FAD0EAC0D1215
:100B29000CFCE47B64FAF9F8AF10AE0FAD0EAC0D16
:100B3900120CFCE47B0AFAF9F8AF10AE0FAD0EAC5B
:100B49000D120CFC120D2AE47B0AFAF9F8AF10AE6B
:100B59000FAD0EAC0D120D057BFF7A0D79AB020DB1
:010B6900305B
:100A1400200003020ABF20934FC200E50CB4031B5D
:100A2400E47FB87E0BFDFCAB10AA0FA90EA80DC382
:100A34001209365030E510240A8019E47FB87E0B81
:100A4400FDFCAB10AA0FA90EA80DC3120936501550
:100A5400E5102401F510E4350FF50FE4350EF50E1D
:100A6400E4350DF50D120CAD209450C200E50CB424
:100A7400031AE47FC8FEFDFCAB10AA0FA90EA80D53
:100A8400D31209364032E510940A8018E47FC8FE78
:100A9400FDFCAB10AA0FA90EA80DD31209364018FD
:100AA400E5109401F510E50F9400F50FE50E9400A0
:100AB400F50EE50D9400F50D120CAD30930630944F
:050AC40003E4F50C2223
:100C5C00E47F64FEFDFCAB10AA0FA90EA80D1208D0
:100C6C0019AB0BAA0AA909A808C312093640067FBA
:100C7C0001C00780047F00C007E4FFFEFDFCAB0B46
:100C8C00AA0AA909A808C312093670047E018002B9
:100C9C007E00D0E04E6005C290D20122D290C201FB
:010CAC002225
:100BF600758951E4F58DF58B758AB0758C3CD28C70
:100C0600D28ED2AFD2A9D2ABFF7E20120D83AB0714
:100C16007F01120D83AD07EBFE7C00E42DFFEC3E59
:100C2600FEE48F108E0FF50EF50D7FB87E0BFDAB33
:100C360010AA0FA90EA80DD3120936400BE47510A1
:100C4600DC750F05F50EF50D120D57120A14120A72
:060C5600C9120C5C80F5E0
:03000B00020947A0
:10094700C0E0C0F0C083C082C0D075D000C000C076
:1009570001C002C003C004C005C006C007758AB045
:10096700758C3C0513E51354037002D200E513752B
:10097700F00584E5F0700D300106C290B295800451
:10098700D290D295E513D394134067AE11AF12E41A
:10099700FCFD7BFF7AFFF9F8120819A804A905AA3C
:1009A70006AB07AF8DEFFEE4FCFD2BFBEA3EFAED4D
:1009B70039F9EC38F8AF8BE4FEEB2FFFEE3AFEED9A
:1009C70039FDEC388F0B8E0A8D09F508758B00758C
:1009D7008D00751100751200751300309303209474
:1009E7000E050CE50CD394034008750C03800375C2
:1009F7000C00D007D006D005D004D003D002D00118
:0D0A0700D000D0D0D082D083D0F0D0E0322B
:03001B00020DE3F0
:0D0DE300C0E00512E51270020511D0E032EB
:100B7600020BF6E493A3F8E493A34003F68001F294
:100B860008DFF48029E493A3F85407240CC8C33380
:100B9600C4540F4420C8834004F456800146F6DF4F
:100BA600E4800B0102040810204080900E10E47EC1
:100BB600019360BCA3FF543F30E509541FFEE49344
:100BC600A360010ECF54C025E060A840B8E493A30B
:100BD600FAE493A3F8E493A3C8C582C8CAC583CA36
:100BE600F0A3C8C582C8CAC583CADFE9DEE780BEEE
:010E160000DB
:10080000BB010689828A83E0225002E722BBFE02F6
:09081000E32289828A83E4932229
:10081900E88FF0A4CC8BF0A42CFCE98EF0A42CFC7E
:100829008AF0EDA42CFCEA8EF0A4CDA8F08BF0A4FC
:100839002DCC3825F0FDE98FF0A42CCD35F0FCEB5B
:100849008EF0A4FEA9F0EB8FF0A4CFC5F02ECD3920
:0F085900FEE43CFCEAA42DCE35F0FDE43CFC228D
:1008680075F008758200EF2FFFEE33FECD33CDCC47
:1008780033CCC58233C5829BED9AEC99E5829840CA
:100888000CF582EE9BFEED9AFDEC99FC0FD5F0D6A7
:10089800E4CEFBE4CDFAE4CCF9A88222B800C1B9D1
:1008A8000059BA002DEC8BF084CFCECDFCE5F0CB0F
:1008B800F97818EF2FFFEE33FEED33FDEC33FCEB48
:1008C80033FB10D703994004EB99FB0FD8E5E4F903
:1008D800FA227818EF2FFFEE33FEED33FDEC33FCF0
:1008E800C933C910D7059BE99A4007EC9BFCE99AE4
:1008F800F90FD8E0E4C9FAE4CCFB2275F010EF2F29
:10090800FFEE33FEED33FDCC33CCC833C810D70728
:100918009BEC9AE899400AED9BFDEC9AFCE899F863
:0E0928000FD5F0DAE4CDFBE4CCFAE4C8F922F6
:10093600EB9FF5F0EA9E42F0E99D42F0E89C45F017
:01094600228E
:00000001FF
